{"abi":[{"type":"constructor","inputs":[{"name":"_token0","type":"address","internalType":"address"},{"name":"_token1","type":"address","internalType":"address"}],"stateMutability":"nonpayable"},{"type":"function","name":"addLiquidity","inputs":[{"name":"_amount0","type":"uint256","internalType":"uint256"},{"name":"_amount1","type":"uint256","internalType":"uint256"}],"outputs":[{"name":"shares","type":"uint256","internalType":"uint256"}],"stateMutability":"nonpayable"},{"type":"function","name":"getReserves","inputs":[],"outputs":[{"name":"reserve0","type":"uint256","internalType":"uint256"},{"name":"reserve1","type":"uint256","internalType":"uint256"}],"stateMutability":"view"},{"type":"function","name":"getShares","inputs":[{"name":"_user","type":"address","internalType":"address"}],"outputs":[{"name":"shares","type":"uint256","internalType":"uint256"}],"stateMutability":"view"},{"type":"function","name":"getToken0","inputs":[],"outputs":[{"name":"token0","type":"address","internalType":"address"}],"stateMutability":"view"},{"type":"function","name":"getToken0Balance","inputs":[],"outputs":[{"name":"token0Balance","type":"uint256","internalType":"uint256"}],"stateMutability":"view"},{"type":"function","name":"getToken1","inputs":[],"outputs":[{"name":"token1","type":"address","internalType":"address"}],"stateMutability":"view"},{"type":"function","name":"getToken1Balance","inputs":[],"outputs":[{"name":"token1Balance","type":"uint256","internalType":"uint256"}],"stateMutability":"view"},{"type":"function","name":"getTotalShares","inputs":[],"outputs":[{"name":"totalShares","type":"uint256","internalType":"uint256"}],"stateMutability":"view"},{"type":"function","name":"removeLiquidity","inputs":[{"name":"_shares","type":"uint256","internalType":"uint256"}],"outputs":[{"name":"amount0","type":"uint256","internalType":"uint256"},{"name":"amount1","type":"uint256","internalType":"uint256"}],"stateMutability":"nonpayable"},{"type":"function","name":"swap","inputs":[{"name":"_tokenIn","type":"address","internalType":"address"},{"name":"_amountIn","type":"uint256","internalType":"uint256"}],"outputs":[{"name":"amountOut","type":"uint256","internalType":"uint256"}],"stateMutability":"nonpayable"},{"type":"error","name":"CAPMM__AmountInTooLow","inputs":[]},{"type":"error","name":"CPAMM__AmountOutZero","inputs":[]},{"type":"error","name":"CPAMM__InsufficientShares","inputs":[]},{"type":"error","name":"CPAMM__InvalidToken","inputs":[]},{"type":"error","name":"CPAMM__NoSharesMinted","inputs":[]},{"type":"error","name":"CPAMM__PriceNotEqualAfterAddingLiquidity","inputs":[]}],"bytecode":{"object":"0x60c060405234801561000f575f5ffd5b5060405161178b38038061178b833981810160405281019061003191906100fe565b8173ffffffffffffffffffffffffffffffffffffffff1660808173ffffffffffffffffffffffffffffffffffffffff16815250508073ffffffffffffffffffffffffffffffffffffffff1660a08173ffffffffffffffffffffffffffffffffffffffff1681525050505061013c565b5f5ffd5b5f73ffffffffffffffffffffffffffffffffffffffff82169050919050565b5f6100cd826100a4565b9050919050565b6100dd816100c3565b81146100e7575f5ffd5b50565b5f815190506100f8816100d4565b92915050565b5f5f60408385031215610114576101136100a0565b5b5f610121858286016100ea565b9250506020610132858286016100ea565b9150509250929050565b60805160a0516115a96101e25f395f8181610228015281816102c601528181610401015281816105df01528181610721015281816109a501528181610b6601528181610c8201528181610cef0152610ef501525f818161036601528181610543015281816106830152818161090d01528181610a4901528181610a7001528181610b0f01528181610c2801528181610ca301528181610cce0152610e5d01526115a95ff3fe608060405234801561000f575f5ffd5b506004361061009c575f3560e01c8063ba94a31511610064578063ba94a3151461015c578063c2d9ecfa1461017a578063d004f0f714610198578063d5002f2e146101c8578063f04da65b146101e65761009c565b80630902f1ac146100a05780635153786b146100bf5780636f26a710146100dd5780639c8f9f23146100fb5780639cd441da1461012c575b5f5ffd5b6100a8610216565b6040516100b6929190611185565b60405180910390f35b6100c7610225565b6040516100d491906111ac565b60405180910390f35b6100e56102c3565b6040516100f29190611204565b60405180910390f35b6101156004803603810190610110919061124b565b6102ea565b604051610123929190611185565b60405180910390f35b61014660048036038101906101419190611276565b610680565b60405161015391906111ac565b60405180910390f35b610164610a46565b6040516101719190611204565b60405180910390f35b610182610a6d565b60405161018f91906111ac565b60405180910390f35b6101b260048036038101906101ad91906112de565b610b0b565b6040516101bf91906111ac565b60405180910390f35b6101d0610f9d565b6040516101dd91906111ac565b60405180910390f35b61020060048036038101906101fb919061131c565b610fa6565b60405161020d91906111ac565b60405180910390f35b5f5f5f54915060015490509091565b5f7f000000000000000000000000000000000000000000000000000000000000000073ffffffffffffffffffffffffffffffffffffffff166370a08231306040518263ffffffff1660e01b815260040161027f9190611204565b602060405180830381865afa15801561029a573d5f5f3e3d5ffd5b505050506040513d601f19601f820116820180604052508101906102be919061135b565b905090565b5f7f0000000000000000000000000000000000000000000000000000000000000000905090565b5f5f60035f3373ffffffffffffffffffffffffffffffffffffffff1673ffffffffffffffffffffffffffffffffffffffff1681526020019081526020015f2054831115610363576040517fa1a5a9ba00000000000000000000000000000000000000000000000000000000815260040160405180910390fd5b5f7f000000000000000000000000000000000000000000000000000000000000000073ffffffffffffffffffffffffffffffffffffffff166370a08231306040518263ffffffff1660e01b81526004016103bd9190611204565b602060405180830381865afa1580156103d8573d5f5f3e3d5ffd5b505050506040513d601f19601f820116820180604052508101906103fc919061135b565b90505f7f000000000000000000000000000000000000000000000000000000000000000073ffffffffffffffffffffffffffffffffffffffff166370a08231306040518263ffffffff1660e01b81526004016104589190611204565b602060405180830381865afa158015610473573d5f5f3e3d5ffd5b505050506040513d601f19601f82011682018060405250810190610497919061135b565b905060025482866104a891906113b3565b6104b29190611421565b935060025481866104c391906113b3565b6104cd9190611421565b92506103e88410806104e057506103e883105b15610517576040517f4e0435a800000000000000000000000000000000000000000000000000000000815260040160405180910390fd5b6105213386610fec565b61054184836105309190611451565b848361053c9190611451565b61105b565b7f000000000000000000000000000000000000000000000000000000000000000073ffffffffffffffffffffffffffffffffffffffff1663a9059cbb33866040518363ffffffff1660e01b815260040161059c929190611484565b6020604051808303815f875af11580156105b8573d5f5f3e3d5ffd5b505050506040513d601f19601f820116820180604052508101906105dc91906114e0565b507f000000000000000000000000000000000000000000000000000000000000000073ffffffffffffffffffffffffffffffffffffffff1663a9059cbb33856040518363ffffffff1660e01b8152600401610638929190611484565b6020604051808303815f875af1158015610654573d5f5f3e3d5ffd5b505050506040513d601f19601f8201168201806040525081019061067891906114e0565b505050915091565b5f7f000000000000000000000000000000000000000000000000000000000000000073ffffffffffffffffffffffffffffffffffffffff166323b872dd3330866040518463ffffffff1660e01b81526004016106de9392919061150b565b6020604051808303815f875af11580156106fa573d5f5f3e3d5ffd5b505050506040513d601f19601f8201168201806040525081019061071e91906114e0565b507f000000000000000000000000000000000000000000000000000000000000000073ffffffffffffffffffffffffffffffffffffffff166323b872dd3330856040518463ffffffff1660e01b815260040161077c9392919061150b565b6020604051808303815f875af1158015610798573d5f5f3e3d5ffd5b505050506040513d601f19601f820116820180604052508101906107bc91906114e0565b505f5f5411806107cd57505f600154115b1561082557826001546107e091906113b3565b825f546107ed91906113b3565b14610824576040517feebab2e900000000000000000000000000000000000000000000000000000000815260040160405180910390fd5b5b5f6002540361084957610842828461083d91906113b3565b61106c565b9050610889565b6108865f546002548561085c91906113b3565b6108669190611421565b6001546002548561087791906113b3565b6108819190611421565b6110e3565b90505b6103e88110156108c5576040517fb114df4900000000000000000000000000000000000000000000000000000000815260040160405180910390fd5b5f81036108fe576040517fb114df4900000000000000000000000000000000000000000000000000000000815260040160405180910390fd5b61090833826110fe565b610a407f000000000000000000000000000000000000000000000000000000000000000073ffffffffffffffffffffffffffffffffffffffff166370a08231306040518263ffffffff1660e01b81526004016109649190611204565b602060405180830381865afa15801561097f573d5f5f3e3d5ffd5b505050506040513d601f19601f820116820180604052508101906109a3919061135b565b7f000000000000000000000000000000000000000000000000000000000000000073ffffffffffffffffffffffffffffffffffffffff166370a08231306040518263ffffffff1660e01b81526004016109fc9190611204565b602060405180830381865afa158015610a17573d5f5f3e3d5ffd5b505050506040513d601f19601f82011682018060405250810190610a3b919061135b565b61105b565b92915050565b5f7f0000000000000000000000000000000000000000000000000000000000000000905090565b5f7f000000000000000000000000000000000000000000000000000000000000000073ffffffffffffffffffffffffffffffffffffffff166370a08231306040518263ffffffff1660e01b8152600401610ac79190611204565b602060405180830381865afa158015610ae2573d5f5f3e3d5ffd5b505050506040513d601f19601f82011682018060405250810190610b06919061135b565b905090565b5f827f000000000000000000000000000000000000000000000000000000000000000073ffffffffffffffffffffffffffffffffffffffff168173ffffffffffffffffffffffffffffffffffffffff1614158015610bb557507f000000000000000000000000000000000000000000000000000000000000000073ffffffffffffffffffffffffffffffffffffffff168173ffffffffffffffffffffffffffffffffffffffff1614155b15610bec576040517fd4b1cb4a00000000000000000000000000000000000000000000000000000000815260040160405180910390fd5b5f8311610c25576040517f3ae3f21500000000000000000000000000000000000000000000000000000000815260040160405180910390fd5b5f7f000000000000000000000000000000000000000000000000000000000000000073ffffffffffffffffffffffffffffffffffffffff168573ffffffffffffffffffffffffffffffffffffffff161490505f5f5f5f84610ccc577f00000000000000000000000000000000000000000000000000000000000000007f00000000000000000000000000000000000000000000000000000000000000006001545f54610d14565b7f00000000000000000000000000000000000000000000000000000000000000007f00000000000000000000000000000000000000000000000000000000000000005f546001545b93509350935093508373ffffffffffffffffffffffffffffffffffffffff166323b872dd33308b6040518463ffffffff1660e01b8152600401610d599392919061150b565b6020604051808303815f875af1158015610d75573d5f5f3e3d5ffd5b505050506040513d601f19601f82011682018060405250810190610d9991906114e0565b505f6103e86103e58a610dac91906113b3565b610db69190611421565b90508083610dc49190611540565b8183610dd091906113b3565b610dda9190611421565b97508373ffffffffffffffffffffffffffffffffffffffff1663a9059cbb338a6040518363ffffffff1660e01b8152600401610e17929190611484565b6020604051808303815f875af1158015610e33573d5f5f3e3d5ffd5b505050506040513d601f19601f82011682018060405250810190610e5791906114e0565b50610f907f000000000000000000000000000000000000000000000000000000000000000073ffffffffffffffffffffffffffffffffffffffff166370a08231306040518263ffffffff1660e01b8152600401610eb49190611204565b602060405180830381865afa158015610ecf573d5f5f3e3d5ffd5b505050506040513d601f19601f82011682018060405250810190610ef3919061135b565b7f000000000000000000000000000000000000000000000000000000000000000073ffffffffffffffffffffffffffffffffffffffff166370a08231306040518263ffffffff1660e01b8152600401610f4c9190611204565b602060405180830381865afa158015610f67573d5f5f3e3d5ffd5b505050506040513d601f19601f82011682018060405250810190610f8b919061135b565b61105b565b5050505050505092915050565b5f600254905090565b5f60035f8373ffffffffffffffffffffffffffffffffffffffff1673ffffffffffffffffffffffffffffffffffffffff1681526020019081526020015f20549050919050565b8060035f8473ffffffffffffffffffffffffffffffffffffffff1673ffffffffffffffffffffffffffffffffffffffff1681526020019081526020015f205f8282546110389190611451565b925050819055508060025f8282546110509190611451565b925050819055505050565b815f81905550806001819055505050565b5f60038211156110d1578190505f60016002846110899190611421565b6110939190611540565b90505b818110156110cb5780915060028182856110b09190611421565b6110ba9190611540565b6110c49190611421565b9050611096565b506110de565b5f82146110dd57600190505b5b919050565b5f818310156110f4578290506110f8565b8190505b92915050565b8060035f8473ffffffffffffffffffffffffffffffffffffffff1673ffffffffffffffffffffffffffffffffffffffff1681526020019081526020015f205f82825461114a9190611540565b925050819055508060025f8282546111629190611540565b925050819055505050565b5f819050919050565b61117f8161116d565b82525050565b5f6040820190506111985f830185611176565b6111a56020830184611176565b9392505050565b5f6020820190506111bf5f830184611176565b92915050565b5f73ffffffffffffffffffffffffffffffffffffffff82169050919050565b5f6111ee826111c5565b9050919050565b6111fe816111e4565b82525050565b5f6020820190506112175f8301846111f5565b92915050565b5f5ffd5b61122a8161116d565b8114611234575f5ffd5b50565b5f8135905061124581611221565b92915050565b5f602082840312156112605761125f61121d565b5b5f61126d84828501611237565b91505092915050565b5f5f6040838503121561128c5761128b61121d565b5b5f61129985828601611237565b92505060206112aa85828601611237565b9150509250929050565b6112bd816111e4565b81146112c7575f5ffd5b50565b5f813590506112d8816112b4565b92915050565b5f5f604083850312156112f4576112f361121d565b5b5f611301858286016112ca565b925050602061131285828601611237565b9150509250929050565b5f602082840312156113315761133061121d565b5b5f61133e848285016112ca565b91505092915050565b5f8151905061135581611221565b92915050565b5f602082840312156113705761136f61121d565b5b5f61137d84828501611347565b91505092915050565b7f4e487b71000000000000000000000000000000000000000000000000000000005f52601160045260245ffd5b5f6113bd8261116d565b91506113c88361116d565b92508282026113d68161116d565b915082820484148315176113ed576113ec611386565b5b5092915050565b7f4e487b71000000000000000000000000000000000000000000000000000000005f52601260045260245ffd5b5f61142b8261116d565b91506114368361116d565b925082611446576114456113f4565b5b828204905092915050565b5f61145b8261116d565b91506114668361116d565b925082820390508181111561147e5761147d611386565b5b92915050565b5f6040820190506114975f8301856111f5565b6114a46020830184611176565b9392505050565b5f8115159050919050565b6114bf816114ab565b81146114c9575f5ffd5b50565b5f815190506114da816114b6565b92915050565b5f602082840312156114f5576114f461121d565b5b5f611502848285016114cc565b91505092915050565b5f60608201905061151e5f8301866111f5565b61152b60208301856111f5565b6115386040830184611176565b949350505050565b5f61154a8261116d565b91506115558361116d565b925082820190508082111561156d5761156c611386565b5b9291505056fea26469706673582212206f48d0096cfdc4fdebb5bae10931c573343434ba0361d65ae86059f3a19dd02064736f6c634300081c0033","linkReferences":{}},"methodIdentifiers":{"addLiquidity(uint256,uint256)":"9cd441da","getReserves()":"0902f1ac","getShares(address)":"f04da65b","getToken0()":"ba94a315","getToken0Balance()":"c2d9ecfa","getToken1()":"6f26a710","getToken1Balance()":"5153786b","getTotalShares()":"d5002f2e","removeLiquidity(uint256)":"9c8f9f23","swap(address,uint256)":"d004f0f7"},"id":21}